:0400000070EF39F074
:1072B800000E9EBA010E1200120000D09EAAFED740
:1072C800AE50120012008A90C80EE82EFED7000EAB
:1072D800026E040E016E120001EE00F0800EEE6ADE
:1072E800E806FDE100EE60F0800EEE6AE806FDE1DA
:1072F8001E6A1D6A000EF86E000158EF3CF0000E81
:10730800056E000E046E0AD0100E036E940EE82E61
:10731800FED7032EFCD700D0044A052A0150045C8E
:1073280002500558D8A0F0D712008A90C80EE82E4F
:10733800FED70C01F00E026F0CEE03F0EE50006F5A
:10734800080E016F8A8000AF0CD0004700F000F0F3
:1073580000F000F000F000F000F08A90012FF2D762
:107368000AD08A90004700F000F000F000F000F02A
:1073780000F0012FE7D7022FE1D712008A90C80E3C
:10738800E82EFED70C01F00E026F0CEE03F0EE5063
:10739800006F080E016F8A8200AF0CD0004700F022
:1073A80000F000F000F000F000F000F08A92012FE9
:1073B800F2D70AD08A92004700F000F000F000F0FF
:1073C80000F000F0012FE7D7022FE1D712008A90D2
:1073D800C80EE82EFED70C01F00E026F0CEE03F07B
:1073E800EE50006F080E016F8A8400AF0CD0004782
:1073F80000F000F000F000F000F000F000F08A94D7
:10740800012FF2D70AD08A94004700F000F000F06C
:1074180000F000F000F0012FE7D7022FE1D71200AB
:107428008A90C80EE82EFED70C01F00E026F0CEE03
:1074380003F0EE50006F080E016F8A8600AF0CD083
:10744800004700F000F000F000F000F000F000F05D
:107458008A96012FF2D70AD08A96004700F000F0EA
:1074680000F000F000F000F0012FE7D7022FE1D77D
:1074780012008A90C80EE82EFED70C01F00E026F9B
:107488000CEE03F0EE50006F080E016F8A8800AF13
:107498000CD0004700F000F000F000F000F000F021
:1074A80000F08A98012FF2D70AD08A98004700F096
:1074B80000F000F000F000F000F0012FE7D7022FF5
:1074C800E1D712008A90C80EE82EFED70C01F00E04
:1074D800026F0CEE03F0EE50006F080E016F8A8AFF
:1074E80000AF0CD0004700F000F000F000F000F012
:1074F80000F000F08A9A012FF2D70AD08A9A004742
:1075080000F000F000F000F000F000F0012FE7D7E5
:10751800022FE1D712008A90C80EE82EFED70C0180
:10752800F00E026F0CEE03F0EE50006F080E016FC4
:107538008A8C00AF0CD0004700F000F000F000F09B
:1075480000F000F000F08A9C012FF2D70AD08A9C44
:10755800004700F000F000F000F000F000F0012F0C
:10756800E7D7022FE1D712008A90C80EE82EFED77F
:107578000C01F00E026F0CEE03F0EE50006F080ED7
:10758800016F8A8E00AF0CD0004700F000F000F0C9
:1075980000F000F000F000F08A9E012FF2D70AD028
:1075A8008A9E004700F000F000F000F000F000F0C4
:1075B800012FE7D7022FE1D71200036E000E066EE7
:1075C800000E056E000E046E05BE08D005502BE1B6
:1075D800500E045CD8B0120001D012000650010D04
:1075E800030EF324D96E0C0EF420DA6E01C0DFFF0F
:1075F800062A0650010D030EF324D96E0C0EF42052
:10760800DA6E03C0DFFF062A0650010D030EF324CD
:10761800D96E0C0EF420DA6E02C0DFFF062A044A87
:10762800052AD2D71200120018D0C2EC39F0120085
:10763800EBEC39F0120014EC3AF012003DEC3AF0A1
:10764800120066EC3AF012008FEC3AF01200B8EC37
:107658003AF0120099EC39F0120001C003F002C0B0
:1076680004F00450000AD8A4F5D70350010AD8B48E
:10767800DCD7030AD8B4DCD7010AD8B4DCD7070AA8
:10768800D8B4DCD7010AD8B4DCD7030AD8B4DCD71D
:10769800010AD8B4DCD7DED71200000E0A6E08AE95
:1076A8000BD0081E071E061E056C000E06220722B8
:1076B8000822010E0A6E00D004AE0BD0041E031E71
:1076C800021E016C000E022203220422010E0A1A75
:1076D80000D0000E0B6E000E0C6E000E0D6E000E2C
:1076E8000E6E0550061007100810D8B42FD0010EE2
:1076F800096E07D0D8900536063607360836092AA7
:1077080000D008BE02D0F6D700D0D8900B360C3681
:107718000D360E360550015C0650025807500358C6
:1077280008500458D8A00AD00550015E0650025AE5
:107738000750035A0850045A0B8000D0D8900832DA
:10774800073206320532092EE0D700D00A50D8B4E5
:1077580009D00E1E0D1E0C1E0B6C000E0C220D22E5
:107768000E2200D00BC001F00CC002F00DC003F0D7
:107778000EC004F0120012000FC013F010C014F075
:1077880011C015F012C016F0060ED8901336143634
:1077980015361636E82EF9D7131E141E151E161E9A
:1077A800132A000E142215221622000E1324016E2D
:1077B8006C0E1420026EDC0E1520036E020E1620CD
:1077C800046E0FC017F010C018F011C019F012C0E5
:1077D8001AF0060ED8901736183619361A36E82ECB
:1077E800F9D717C005F018C006F019C007F01AC07D
:1077F80008F051EC3BF001C01BF002C01CF01C0467
:10780800D8A045D00FC013F010C014F011C015F067
:1078180012C016F0040ED8901336143615361636E4
:10782800E82EF9D7131E141E151E161E132A000E55
:10783800142215221622000E1324016E6C0E142039
:10784800026EDC0E1520036E020E1620046E0FC0A9
:1078580017F010C018F011C019F012C01AF0040E79
:10786800D8901736183619361A36E82EF9D717C0B1
:1078780005F018C006F019C007F01AC008F051EC5E
:107888003BF001C01BF002C01CF0BA8400D01C04FD
:10789800D8B012001BC0AFFFAC98AB8E948E948CFE
:1078A800AB88BA8A120012009B8CD388D38AD38CF7
:1078B800800E0F6E250E106E000E116E000E126EE9
:1078C800C0EC3BF00E0EC16EB60EC06E000E896E97
:1078D800000E8A6E000E8B6E000E926E000E936E76
:1078E800000E946E000E016E000E026E000EE1ECAA
:1078F8003AF067EC39F0000E026E000E016E18ECDB
:107908003BF0070E026ED00E016E83EC39F000D00A
:107918005CEC39F00009D8B404D061EC39F0806E21
:1079280000D0000E026E640E016E83EC39F0F0D7C1
:1079380000D0000E016E640E026E640EE1EC3AF0A7
:10794800000E026E000E016E18EC3BF0130E026E74
:10795800880E016E83EC39F0800E016E000E026E07
:10796800FF0EE1EC3AF0000E026E010E016E18EC0B
:107978003BF0130E026E880E016E83EC39F0000E98
:10798800016E000E026EFF0EE1EC3AF0000E026E80
:10799800020E016E18EC3BF0130E026E880E016E9B
:1079A80083EC39F0000E016EFF0E026E000EE1EC62
:1079B8003AF0000E026E030E016E18EC3BF0130E47
:1079C800026E880E016E83EC39F0C80E016EC80E87
:1079D800026E000EE1EC3AF0000E026E040E016E2B
:1079E80018EC3BF0130E026E880E016E83EC39F032
:1079F800A0D700EF00F0000000C90092015B02244C
:107A080003ED03B6047E0547061007D907A1086AE7
:107A180009320AFB0AC30B8B0C530D1B0EE30EAB8A
:107A28000F721039110012C7128E1355141B15E16D
:107A380015A7166D173318F818BD19821A461B0BAF
:107A48001CCF1C931D561E191FDC1F9F206121236C
:107A580022E422A62367242725E725A726672726C9
:107A680028E528A329612A1E2BDB2B982C542D10DE
:107A78002ECC2E862F4130FB30B4316D322633DECA
:107A88003396344D350336B9366F372438D8388CA9
:107A9800393F3AF23AA43B563C073DB73D673E169C
:107AA8003FC53F73402041CD4179422543D0437AB9
:107AB800442345CC4574461C47C34769480E49B31F
:107AC80049574AFA4A9D4B3F4CE04C804D204EBFE7
:107AD8004E5D4FFA4F97503351CE51685201539A29
:107AE800533254C9545F55F45589561D57B05742FF
:107AF80058D3586359F359815A0F5B9C5B285CB380
:107B08005C3D5DC65D4F5ED65E5D5FE25F6760EBC4
:107B1800606E61F0617162F1627063EE636B64E7DD
:107B2800646265DD655666CE664567BC673168A5E3
:107B38006819698B69FC696C6ADB6A4A6BB76B23E5
:107B48006C8E6CF86C616DC96D306E956EFA6E5EF8
:107B58006FC06F22708270E17040719D71F971542D
:107B680072AE7206735E73B5730A745E74B1740391
:107B7800755475A475F37540768D76D87622776B33
:107B880077B377F9773F788378C678087949798920
:107B980079C779047A417A7C7AB57AEE7A257B5C62
:107BA8007B917BC47BF77B297C597C887CB67CE203
:107BB8007C0E7D387D617D897DB07DD57DF97D1C0C
:107BC8007E3E7E5E7E7E7E9C7EB97ED47EEF7E0883
:107BD8007F207F377F4C7F617F747F867F967FA66B
:107BE8007FB47FC17FCD7FD77FE07FE87FEF7FF5D0
:107BF8007FF97FFC7FFE7FFF7FFE7FFC7FF97FF5AB
:107C08007FEF7FE87FE07FD77FCD7FC17FB47FA6FE
:107C18007F967F867F747F617F4C7F377F207F08C8
:107C28007FEF7ED47EB97E9C7E7E7E5E7E3E7E1C0D
:107C38007EF97DD57DB07D897D617D387D0E7DE2C3
:107C48007CB67C887C597C297CF77BC47B917B5CE7
:107C58007B257BEE7AB57A7C7A417A047AC7798972
:107C68007949790879C67883783F78F977B3776B5B
:107C7800772277D8768D764076F375A47554750398
:107C880075B1745E740A74B5735E730673AE72541C
:107C980072F9719D714071E17082702270C06F5EDF
:107CA8006FFA6E956E306EC96D616DF86C8E6C23CF
:107CB8006CB76B4A6BDB6A6C6AFC698B691969A5DE
:107CC800683168BC674567CE665666DD656265E7FC
:107CD800646B64EE637063F1627162F0616E61EB14
:107CE800606760E25F5D5FD65E4F5EC65D3D5DB317
:107CF8005C285C9C5B0F5B815AF3596359D35842EB
:107D080058B0571D578956F4555F55C95432549A7F
:107D18005301536852CE5133519750FA4F5D4FBFBC
:107D28004E204E804DE04C3F4C9D4BFA4A574AB38B
:107D3800490E496948C3471C477446CC4523457AD0
:107D480044D04325437942CD4120417340C53F1675
:107D58003F673EB73D073D563CA43BF23A3F3A8C5D
:107D680039D83824386F37B93603364D359634DE6E
:107D78003326336D32B431FB304130862FCC2E1090
:107D88002E542D982CDB2B1E2B612AA329E528269F
:107D9800286727A726E72527256724A623E4222383
:107DA8002261219F20DC1F191F561E931DCF1C0B1B
:107DB8001C461B821ABD19F81833186D17A716E14F
:107DC800151B1555148E13C712001239117210ABFA
:107DD8000FE30E1B0E530D8B0CC30BFB0A320A6A02
:107DE80009A108D907100747067E05B604ED032444
:107DF800035B029201C900000037FF6EFEA5FDDC9F
:107E0800FC13FC4AFB82FAB9F9F0F827F85FF796F9
:107E1800F6CEF505F53DF475F3ADF2E5F11DF15536
:107E2800F08EEFC7EE00EE39ED72ECABEBE5EA1F32
:107E3800EA59E993E8CDE708E743E67EE5BAE4F5D1
:107E4800E331E36DE2AAE1E7E024E061DF9FDEDDF4
:107E5800DD1CDD5ADC99DBD9DA19DA59D999D8DA77
:107E6800D71BD75DD69FD5E2D425D468D3ACD2F042
:107E7800D134D17AD0BFCF05CF4CCE93CDDACC2236
:107E8800CC6ACBB3CAFDC947C991C8DCC728C77437
:107E9800C6C1C50EC55CC4AAC3F9C249C299C1EA24
:107EA800C03BC08DBFE0BE33BE87BDDBBC30BC86E7
:107EB800BBDDBA34BA8CB9E4B83DB897B7F2B64D61
:107EC800B6A9B506B563B4C1B320B380B2E0B14179
:107ED800B1A3B006B069AFCDAE32AE98ADFFAC6617
:107EE800ACCEAB37ABA1AA0CAA77A9E3A850A8BE21
:107EF800A72DA79DA60DA67FA5F1A464A4D8A34D80
:107F0800A3C3A23AA2B1A12AA1A3A01EA0999F151A
:107F18009F929E109E8F9D0F9D909C129C959B19E1
:107F28009B9E9A239AAA993299BB984498CF975BBB
:107F380097E7967596049694952595B6944994DD99
:107F480093729308939F923792D0916B910691A266
:107F5800904090DE8F7E8F1F8FC08E638E078EAC11
:107F68008D528DFA8CA28C4B8CF68BA28B4F8BFD8D
:107F78008AAC8A5C8A0D8AC08973892889DE8895CB
:107F8800884D880788C1877D873A87F886B78677BE
:107F9800863986FC85BF8584854B851285DB84A45C
:107FA800846F843C840984D783A78378834A831E9B
:107FB80083F282C8829F82778250822B820782E472
:107FC80081C281A2818281648147812C811181F8DB
:107FD80080E080C980B4809F808C807A806A805AD3
:107FE800804C803F80338029802080188011800B4E
:087FF800800780048002800074
:020000040020DA
:08000000FFFFFFFFFFFFFFFF00
:020000040030CA
:0E0000001D187F00FF8991FF0FC00FE00F4019
:00000001FF
